{
  "contractName": "InvoiceContract",
  "abi": [
    {
      "anonymous": false,
      "inputs": [
        {
          "indexed": true,
          "internalType": "uint256",
          "name": "id",
          "type": "uint256"
        },
        {
          "indexed": false,
          "internalType": "string",
          "name": "customerName",
          "type": "string"
        },
        {
          "indexed": false,
          "internalType": "uint256",
          "name": "amount",
          "type": "uint256"
        }
      ],
      "name": "InvoiceCreated",
      "type": "event"
    },
    {
      "inputs": [],
      "name": "invoiceCount",
      "outputs": [
        {
          "internalType": "uint256",
          "name": "",
          "type": "uint256"
        }
      ],
      "stateMutability": "view",
      "type": "function"
    },
    {
      "inputs": [
        {
          "internalType": "uint256",
          "name": "",
          "type": "uint256"
        }
      ],
      "name": "invoices",
      "outputs": [
        {
          "internalType": "string",
          "name": "id",
          "type": "string"
        },
        {
          "internalType": "string",
          "name": "customerName",
          "type": "string"
        },
        {
          "internalType": "uint256",
          "name": "amount",
          "type": "uint256"
        }
      ],
      "stateMutability": "view",
      "type": "function"
    },
    {
      "inputs": [
        {
          "internalType": "string",
          "name": "_id",
          "type": "string"
        },
        {
          "internalType": "string",
          "name": "_customerName",
          "type": "string"
        },
        {
          "internalType": "uint256",
          "name": "_amount",
          "type": "uint256"
        }
      ],
      "name": "createInvoice",
      "outputs": [],
      "stateMutability": "nonpayable",
      "type": "function"
    },
    {
      "inputs": [
        {
          "internalType": "uint256",
          "name": "_id",
          "type": "uint256"
        }
      ],
      "name": "getInvoice",
      "outputs": [
        {
          "internalType": "string",
          "name": "",
          "type": "string"
        },
        {
          "internalType": "string",
          "name": "",
          "type": "string"
        },
        {
          "internalType": "uint256",
          "name": "",
          "type": "uint256"
        }
      ],
      "stateMutability": "view",
      "type": "function"
    }
  ],
  "bytecode": "0x608060405234801561001057600080fd5b50610a44806100206000396000f3fe608060405234801561001057600080fd5b506004361061004c5760003560e01c80631346f0c4146100515780633a23cc0a1461006f5780634e6d1405146100a15780636dcb07dd146100d3575b600080fd5b6100596100ef565b6040516100669190610575565b60405180910390f35b610089600480360381019061008491906105d0565b6100f5565b60405161009893929190610696565b60405180910390f35b6100bb60048036038101906100b691906105d0565b6102aa565b6040516100ca93929190610696565b60405180910390f35b6100ed60048036038101906100e89190610810565b6103e4565b005b60015481565b6060806000600154841061013e576040517f08c379a0000000000000000000000000000000000000000000000000000000008152600401610135906108e7565b60405180910390fd5b600080600086815260200190815260200160002060405180606001604052908160008201805461016d90610936565b80601f016020809104026020016040519081016040528092919081815260200182805461019990610936565b80156101e65780601f106101bb576101008083540402835291602001916101e6565b820191906000526020600020905b8154815290600101906020018083116101c957829003601f168201915b505050505081526020016001820180546101ff90610936565b80601f016020809104026020016040519081016040528092919081815260200182805461022b90610936565b80156102785780601f1061024d57610100808354040283529160200191610278565b820191906000526020600020905b81548152906001019060200180831161025b57829003601f168201915b505050505081526020016002820154815250509050806000015181602001518260400151935093509350509193909250565b60006020528060005260406000206000915090508060000180546102cd90610936565b80601f01602080910402602001604051908101604052809291908181526020018280546102f990610936565b80156103465780601f1061031b57610100808354040283529160200191610346565b820191906000526020600020905b81548152906001019060200180831161032957829003601f168201915b50505050509080600101805461035b90610936565b80601f016020809104026020016040519081016040528092919081815260200182805461038790610936565b80156103d45780601f106103a9576101008083540402835291602001916103d4565b820191906000526020600020905b8154815290600101906020018083116103b757829003601f168201915b5050505050908060020154905083565b6000604051806060016040528085815260200184815260200183815250905080600080600154815260200190815260200160002060008201518160000190805190602001906104349291906104b9565b5060208201518160010190805190602001906104519291906104b9565b50604082015181600201559050506001547f7a7ddaccb026ceb5b95e8c35cacf01335336c5be6e99ba75ad63bcf811824d388484604051610493929190610967565b60405180910390a2600160008154809291906104ae906109c6565b919050555050505050565b8280546104c590610936565b90600052602060002090601f0160209004810192826104e7576000855561052e565b82601f1061050057805160ff191683800117855561052e565b8280016001018555821561052e579182015b8281111561052d578251825591602001919060010190610512565b5b50905061053b919061053f565b5090565b5b80821115610558576000816000905550600101610540565b5090565b6000819050919050565b61056f8161055c565b82525050565b600060208201905061058a6000830184610566565b92915050565b6000604051905090565b600080fd5b600080fd5b6105ad8161055c565b81146105b857600080fd5b50565b6000813590506105ca816105a4565b92915050565b6000602082840312156105e6576105e561059a565b5b60006105f4848285016105bb565b91505092915050565b600081519050919050565b600082825260208201905092915050565b60005b8381101561063757808201518184015260208101905061061c565b83811115610646576000848401525b50505050565b6000601f19601f8301169050919050565b6000610668826105fd565b6106728185610608565b9350610682818560208601610619565b61068b8161064c565b840191505092915050565b600060608201905081810360008301526106b0818661065d565b905081810360208301526106c4818561065d565b90506106d36040830184610566565b949350505050565b600080fd5b600080fd5b7f4e487b7100000000000000000000000000000000000000000000000000000000600052604160045260246000fd5b61071d8261064c565b810181811067ffffffffffffffff8211171561073c5761073b6106e5565b5b80604052505050565b600061074f610590565b905061075b8282610714565b919050565b600067ffffffffffffffff82111561077b5761077a6106e5565b5b6107848261064c565b9050602081019050919050565b82818337600083830152505050565b60006107b36107ae84610760565b610745565b9050828152602081018484840111156107cf576107ce6106e0565b5b6107da848285610791565b509392505050565b600082601f8301126107f7576107f66106db565b5b81356108078482602086016107a0565b91505092915050565b6000806000606084860312156108295761082861059a565b5b600084013567ffffffffffffffff8111156108475761084661059f565b5b610853868287016107e2565b935050602084013567ffffffffffffffff8111156108745761087361059f565b5b610880868287016107e2565b9250506040610891868287016105bb565b9150509250925092565b7f496e76616c696420696e766f6963652049440000000000000000000000000000600082015250565b60006108d1601283610608565b91506108dc8261089b565b602082019050919050565b60006020820190508181036000830152610900816108c4565b9050919050565b7f4e487b7100000000000000000000000000000000000000000000000000000000600052602260045260246000fd5b6000600282049050600182168061094e57607f821691505b60208210810361096157610960610907565b5b50919050565b60006040820190508181036000830152610981818561065d565b90506109906020830184610566565b9392505050565b7f4e487b7100000000000000000000000000000000000000000000000000000000600052601160045260246000fd5b60006109d18261055c565b91507fffffffffffffffffffffffffffffffffffffffffffffffffffffffffffffffff8203610a0357610a02610997565b5b60018201905091905056fea26469706673582212209f24ba05b2c0976e499e0220e2d33c229ea47414b5da943aa6ad0625d016179964736f6c634300080d0033",
  "immutableReferences": {},
  "source": "// SPDX-License-Identifier: MIT\r\npragma solidity ^0.8.13;\r\n\r\ncontract InvoiceContract {\r\n    struct Invoice {\r\n        string id;\r\n        string customerName;\r\n        uint256 amount;\r\n    }\r\n\r\n    mapping(uint256 => Invoice) public invoices;\r\n    uint256 public invoiceCount;\r\n\r\n    event InvoiceCreated(uint256 indexed id, string customerName, uint256 amount);\r\n\r\n    function createInvoice(string memory _id, string memory _customerName, uint256 _amount) external {\r\n        Invoice memory newInvoice = Invoice(_id, _customerName, _amount);\r\n        invoices[invoiceCount] = newInvoice;\r\n        emit InvoiceCreated(invoiceCount, _customerName, _amount);\r\n        invoiceCount++;\r\n    }\r\n\r\n    function getInvoice(uint256 _id) external view returns (string memory, string memory, uint256) {\r\n        require(_id < invoiceCount, \"Invalid invoice ID\");\r\n        Invoice memory invoice = invoices[_id];\r\n        return (invoice.id, invoice.customerName, invoice.amount);\r\n    }\r\n}\r\n",
  "sourcePath": "D:\\Raheem Solutions\\AD Raheem Solutions\\BlockChain\\tuffle metacoin\\contracts\\InvoiceContract.sol",
  "compiler": {
    "name": "solc",
    "version": "0.8.13+commit.abaa5c0e.Emscripten.clang"
  },
  "schemaVersion": "3.4.14",
  "updatedAt": "2023-07-24T11:34:58.640Z",
  "devdoc": {
    "kind": "dev",
    "methods": {},
    "version": 1
  },
  "userdoc": {
    "kind": "user",
    "methods": {},
    "version": 1
  }
}