{
  "contractName": "SaleInvoiceContract",
  "abi": [
    {
      "inputs": [
        {
          "internalType": "string",
          "name": "invoiceId",
          "type": "string"
        },
        {
          "internalType": "string",
          "name": "ipfsHash",
          "type": "string"
        }
      ],
      "name": "addOrUpdateSaleInvoice",
      "outputs": [],
      "stateMutability": "nonpayable",
      "type": "function"
    },
    {
      "inputs": [
        {
          "internalType": "string",
          "name": "invoiceId",
          "type": "string"
        }
      ],
      "name": "getSaleInvoice",
      "outputs": [
        {
          "internalType": "string",
          "name": "",
          "type": "string"
        }
      ],
      "stateMutability": "view",
      "type": "function",
      "constant": true
    }
  ],
  "bytecode": "0x608060405234801561001057600080fd5b50610605806100206000396000f3fe608060405234801561001057600080fd5b50600436106100365760003560e01c806387763e481461003b578063e6e6f2f21461006b575b600080fd5b610055600480360381019061005091906103b1565b610087565b6040516100629190610482565b60405180910390f35b610085600480360381019061008091906104a4565b61013a565b005b60606000826040516100999190610558565b908152602001604051809103902060010180546100b59061059e565b80601f01602080910402602001604051908101604052809291908181526020018280546100e19061059e565b801561012e5780601f106101035761010080835404028352916020019161012e565b820191906000526020600020905b81548152906001019060200180831161011157829003601f168201915b50505050509050919050565b60006040518060400160405280848152602001838152509050806000846040516101649190610558565b9081526020016040518091039020600082015181600001908051906020019061018e9291906101b4565b5060208201518160010190805190602001906101ab9291906101b4565b50905050505050565b8280546101c09061059e565b90600052602060002090601f0160209004810192826101e25760008555610229565b82601f106101fb57805160ff1916838001178555610229565b82800160010185558215610229579182015b8281111561022857825182559160200191906001019061020d565b5b509050610236919061023a565b5090565b5b8082111561025357600081600090555060010161023b565b5090565b6000604051905090565b600080fd5b600080fd5b600080fd5b600080fd5b6000601f19601f8301169050919050565b7f4e487b7100000000000000000000000000000000000000000000000000000000600052604160045260246000fd5b6102be82610275565b810181811067ffffffffffffffff821117156102dd576102dc610286565b5b80604052505050565b60006102f0610257565b90506102fc82826102b5565b919050565b600067ffffffffffffffff82111561031c5761031b610286565b5b61032582610275565b9050602081019050919050565b82818337600083830152505050565b600061035461034f84610301565b6102e6565b9050828152602081018484840111156103705761036f610270565b5b61037b848285610332565b509392505050565b600082601f8301126103985761039761026b565b5b81356103a8848260208601610341565b91505092915050565b6000602082840312156103c7576103c6610261565b5b600082013567ffffffffffffffff8111156103e5576103e4610266565b5b6103f184828501610383565b91505092915050565b600081519050919050565b600082825260208201905092915050565b60005b83811015610434578082015181840152602081019050610419565b83811115610443576000848401525b50505050565b6000610454826103fa565b61045e8185610405565b935061046e818560208601610416565b61047781610275565b840191505092915050565b6000602082019050818103600083015261049c8184610449565b905092915050565b600080604083850312156104bb576104ba610261565b5b600083013567ffffffffffffffff8111156104d9576104d8610266565b5b6104e585828601610383565b925050602083013567ffffffffffffffff81111561050657610505610266565b5b61051285828601610383565b9150509250929050565b600081905092915050565b6000610532826103fa565b61053c818561051c565b935061054c818560208601610416565b80840191505092915050565b60006105648284610527565b915081905092915050565b7f4e487b7100000000000000000000000000000000000000000000000000000000600052602260045260246000fd5b600060028204905060018216806105b657607f821691505b6020821081036105c9576105c861056f565b5b5091905056fea2646970667358221220b1845125376d3678c68bd4aa18bbc1af950db02fc465d3da8fffcbbfb250cd7a64736f6c634300080d0033",
  "immutableReferences": {},
  "source": "// SPDX-License-Identifier: MIT\r\npragma solidity ^0.8.13;\r\n\r\ncontract SaleInvoiceContract {\r\n    struct SaleInvoice {\r\n        string invoiceId;\r\n        string ipfsHash; // IPFS CID representing the JSON data\r\n    }\r\n\r\n    mapping(string => SaleInvoice) private saleInvoices;\r\n\r\n    function addOrUpdateSaleInvoice(string memory invoiceId, string memory ipfsHash) public {\r\n        SaleInvoice memory newInvoice = SaleInvoice({\r\n            invoiceId: invoiceId,\r\n            ipfsHash: ipfsHash\r\n        });\r\n\r\n        saleInvoices[invoiceId] = newInvoice;\r\n    }\r\n\r\n    function getSaleInvoice(string memory invoiceId) public view returns (string memory) {\r\n        return saleInvoices[invoiceId].ipfsHash;\r\n    }\r\n}\r\n",
  "sourcePath": "D:\\Raheem Solutions\\AD Raheem Solutions\\BlockChain\\tuffle metacoin\\contracts\\SaleInvoiceContract.sol",
  "compiler": {
    "name": "solc",
    "version": "0.8.13+commit.abaa5c0e.Emscripten.clang"
  },
  "schemaVersion": "3.4.14",
  "updatedAt": "2023-07-24T11:35:12.280Z",
  "networkType": "ethereum",
  "devdoc": {
    "kind": "dev",
    "methods": {},
    "version": 1
  },
  "userdoc": {
    "kind": "user",
    "methods": {},
    "version": 1
  }
}